{
  "contracts/utils/Utils.sol": {
    "Utils": {
      "abi": [
        {
          "inputs": [],
          "name": "blockNumber",
          "outputs": [
            {
              "internalType": "uint256",
              "name": "",
              "type": "uint256"
            }
          ],
          "stateMutability": "view",
          "type": "function"
        },
        {
          "inputs": [],
          "name": "blockTimestamp",
          "outputs": [
            {
              "internalType": "uint256",
              "name": "",
              "type": "uint256"
            }
          ],
          "stateMutability": "view",
          "type": "function"
        }
      ],
      "evm": {
        "bytecode": {
          "linkReferences": {},
          "object": "6080604052348015600f57600080fd5b5060868061001e6000396000f3fe6080604052348015600f57600080fd5b506004361060325760003560e01c806357e871e7146037578063adb6183214604b575b600080fd5b435b60405190815260200160405180910390f35b42603956fea2646970667358221220ddd7d1a9026405af4dbd3214cc96d2e5767f8d42d896e8f67b1eea8c274488bf64736f6c634300080d0033",
          "opcodes": "PUSH1 0x80 PUSH1 0x40 MSTORE CALLVALUE DUP1 ISZERO PUSH1 0xF JUMPI PUSH1 0x0 DUP1 REVERT JUMPDEST POP PUSH1 0x86 DUP1 PUSH2 0x1E PUSH1 0x0 CODECOPY PUSH1 0x0 RETURN INVALID PUSH1 0x80 PUSH1 0x40 MSTORE CALLVALUE DUP1 ISZERO PUSH1 0xF JUMPI PUSH1 0x0 DUP1 REVERT JUMPDEST POP PUSH1 0x4 CALLDATASIZE LT PUSH1 0x32 JUMPI PUSH1 0x0 CALLDATALOAD PUSH1 0xE0 SHR DUP1 PUSH4 0x57E871E7 EQ PUSH1 0x37 JUMPI DUP1 PUSH4 0xADB61832 EQ PUSH1 0x4B JUMPI JUMPDEST PUSH1 0x0 DUP1 REVERT JUMPDEST NUMBER JUMPDEST PUSH1 0x40 MLOAD SWAP1 DUP2 MSTORE PUSH1 0x20 ADD PUSH1 0x40 MLOAD DUP1 SWAP2 SUB SWAP1 RETURN JUMPDEST TIMESTAMP PUSH1 0x39 JUMP INVALID LOG2 PUSH5 0x6970667358 0x22 SLT KECCAK256 0xDD 0xD7 0xD1 0xA9 MUL PUSH5 0x5AF4DBD32 EQ 0xCC SWAP7 0xD2 0xE5 PUSH23 0x7F8D42D896E8F67B1EEA8C274488BF64736F6C63430008 0xD STOP CALLER "
        },
        "methodIdentifiers": {
          "blockNumber()": "57e871e7",
          "blockTimestamp()": "adb61832"
        }
      },
      "storageLayout": {
        "storage": [],
        "types": null
      }
    }
  }
}